:100000000C94E4020C94CA100C94A3100C940C03EE
:100010000C940C030C940C030C94A50B0C940C0383
:100020000C940C030C940C030C940C030C940C0314
:100030000C940C030C940C030C940C030C940C0304
:100040000C9459100C940C030C9417110C94F1108F
:100050000C940C030C940C030C940C030C940C03E4
:100060000C94DA130C940C0300407A10F35A00A09D
:10007000724E18090010A5D4E80000E87648170071
:1000800000E40B54020000CA9A3B000000E1F505B1
:10009000000080969800000040420F000000A086FB
:1000A00001000000102700000000E803000000002D
:1000B0006400000000000A000000000001000000D1
:1000C00000002C76D888DC674F0823DFC1DFAE59EB
:1000D000E1B1B796E5E3E453C63AE651997696E87E
:1000E000E6C28426EB898C9B62ED407C6FFCEFBC02
:1000F0009C9F40F2BAA56FA5F490055A2AF75C932D
:100100006B6CF9676DC11BFCE0E40D47FEF520E662
:10011000B500D0ED902E0300943577050080841E45
:10012000080000204E0A000000C80C333333330FA0
:10013000986E12831141EF8D2114893BE65516CF3D
:10014000FEE6DB18D1844B381BF77C1D901DA4BB49
:10015000E424203284725E228100C9F124ECA1E5FE
:100160003D2754534D3A494E49540A002154534DAA
:100170003A494E49543A545350204641494C0A009A
:1001800054534D3A494E49543A545350204F4B0A18
:100190000054534D3A465041520A002154534D3AAF
:1001A000465041523A4E4F205245504C590A002178
:1001B00054534D3A465041523A4641494C0A005434
:1001C000534D3A465041523A4F4B0A0054534D3A20
:1001D00049443A5245510A0054534D3A49440A00A1
:1001E0002154534D3A49443A4641494C0A0054532C
:1001F0004D3A49443A4F4B0A0054534D3A55504CEE
:100200000A002154534D3A55504C3A4641494C0A44
:100210000054534D3A55504C3A444757432C4F3DA8
:1002200025642C4E3D25640A0054534D3A55504CDC
:100230003A4F4B0A0054534D3A52454144593A49BA
:10024000443D25642C5041523D25642C4449533D86
:1002500025640A002154534D3A52454144593A55B8
:10026000504C204641494C2C534E500A0054534D9B
:100270003A4641494C3A5044540A0054534D3A4688
:1002800041494C3A434E543D25640A0054534D3A7B
:100290004641494C3A52452D494E49540A004D4376
:1002A0004F3A50494D3A4E4F4445205245473D251F
:1002B000640A00215453463A4D53473A52454C2064
:1002C0004D53472C4E5245500A005453463A4D5315
:1002D000473A42430A005453463A4D53473A414342
:1002E0004B0A00215453463A4D53473A504F4E471C
:1002F00020524543562C494E4143544956450A0025
:100300005453463A4D53473A504F4E472052454377
:10031000562C48503D25640A005453463A4D5347E5
:100320003A50494E4745442C49443D25642C485099
:100330003D25640A00215453463A4D53473A4650EE
:10034000415220494E4143544956450A00545346B0
:100350003A4D53473A46504152204F4B2C49443D69
:1003600025642C443D25640A005453463A4D5347B6
:100370003A41434B205245510A00215453463A4DCD
:1003800053473A505645522C25643D25640A0021B6
:100390005453463A4D53473A4C454E2C2564213D23
:1003A00025640A005453463A4D53473A5245414456
:1003B0002C25642D25642D25642C733D25642C6328
:1003C0003D25642C743D25642C70743D25642C6C93
:1003D0003D25642C73673D25643A25730A00545308
:1003E000463A5349443A4F4B2C49443D25640A0050
:1003F000215453463A5349443A4641494C2C4944C6
:100400003D25640A0025735453463A4D53473A53E9
:10041000454E442C25642D25642D25642D25642C02
:10042000733D25642C633D25642C743D25642C703C
:10043000743D25642C6C3D25642C73673D25642C2C
:1004400066743D25642C73743D25733A25730A0048
:10045000215453463A5254453A4650415220414362
:10046000544956450A0000000000240027002A00D5
:1004700000000000250028002B00000000080002FA
:10048000010000030407000000000000000000005D
:100490000000230026002900214D434F3A534E44CB
:1004A0003A4E4F4445204E4F54205245470A0004CF
:1004B000040404040404040202020202020303030B
:1004C0000303030102040810204080010204081005
:1004D000200102040810204D434F3A534C503A5724
:1004E00055503D25640A004D434F3A534C503A5401
:1004F00050440A004D434F3A534C503A4D533D251A
:100500006C750A00214D434F3A534C503A544E52A9
:100510000A004D434F3A534C503A4D533D256C75AC
:100520002C534D533D25642C49313D25642C4D31D0
:100530003D25642C49323D25642C4D323D25640A0D
:1005400000215453463A534E443A544E520A004DF9
:10055000434F3A5245473A5245510A005453463A9E
:100560005755523A4D533D256C750A004D434F3A4D
:1005700042474E3A494E4954204F4B2C5453503D1C
:1005800025640A004D434F3A42474E3A5354500AAD
:10059000004D434F3A42474E3A4246520A004D43BD
:1005A0004F3A42474E3A494E4954204E4F44452C0B
:1005B00043503D524E4E4E412D2D2C5645523D320C
:1005C0002E312E310A00531611241FBECFEFD8E072
:1005D000DEBFCDBF11E0A0E0B1E0E8EBFFE302C079
:1005E00005900D92A637B107D9F723E0A6E7B1E051
:1005F00001C01D92A937B207E1F712E0C4EED2E0C4
:1006000004C02197FE010E94C01FC33ED107C9F755
:100610000E94C7160C94DA1F0C9400000F931F93CE
:100620000E94200F0091FA021091FB022091FC021F
:100630003091FD02601B710B820B930B1F910F9188
:1006400008959C018091F8029091F9028217930716
:1006500051F0909102039F71909302033093F9023D
:100660002093F80205C080910203805E809302030C
:10067000E091F802F091F9020190F081E02D3097BD
:1006800009F009950E94200F6093FA027093FB0213
:100690008093FC029093FD020895CF92DF92EF9237
:1006A000FF920F931F93CF93DF93CDB7DEB7C85759
:1006B000D1090FB6F894DEBF0FBECDBF0E94200F48
:1006C0009B01AC0119A28E010F5D1F4F8AE0C82E5D
:1006D000D12CE12CF12CCA01B901A70196010E948D
:1006E0009E1F605DF80162938F0121153105410560
:1006F000510589F7CF010E941D0E89E491E00E9407
:100700001D0E9E012B573F4FCD57DF4F488159811A
:10071000C358D04068E770E0CE0101960E94AD1842
:10072000CE0101960E941D0E8FEA91E00E94FD0C01
:10073000C858DF4F0FB6F894DEBF0FBECDBFDF91B4
:10074000CF911F910F91FF90EF90DF90CF90089580
:10075000AF92BF92CF92DF92EF92FF920F931F93CF
:10076000CF93DF93EC018A819091020390FF0CC03C
:100770008F3F79F080E594E09F938F930E944D0323
:100780000F900F9010E0D0C08F3F19F00091AD0195
:1007900001C00FEF8091AC0188834B8142FD06C000
:1007A00046954695469517E0140F01C010E280E08B
:1007B00090E0892B21F080E090E00E9400002998D1
:1007C00083E092E00197F1F76EE080E20E94A315CA
:1007D0008BE891E00197F1F7602F8AE20E94A31560
:1007E000602F80E30E94A31581EE0E94C6150F3F83
:1007F00011F080EA01C080EB412F113208F040E295
:1008000020E0BE010E947115299AE12CF12C8FEF96
:100810000E94C615182F807321F481E0E81AF108B0
:10082000B1F7299860E387E20E94A31514FF03C083
:1008300081EE0E94C6150E94B91515FB112710F90B
:1008400081E00F3F09F080E0182BCE010E946D0D72
:10085000111103C0EEE4F1E002C0EBE4F1E06091BD
:1008600003036F702B8122FBAA24A0F8322F369548
:10087000369536952C81B22EB294B69447E0B422C8
:10088000CD802770DE80EA80A02FB0E0F8807981EB
:10089000111103C043E551E002C04AE451E09F93C7
:1008A0008F93FF93EF931F926F931F92AF921F92BC
:1008B0003F931F92BF921F92CF921F922F931F922E
:1008C000DF921F92EF92BF93AF931F92FF921F92FE
:1008D0007F935F934F9385E094E09F938F930E9463
:1008E0004D038DB79EB74E960FB6F8949EBF0FBEC0
:1008F0008DBF8091AD01081317C0111110C080E0A9
:1009000090E0892B21F085E690E00E940000809124
:10091000030391E0980F9F70807F892B03C0809123
:100920000303807F80930303812FDF91CF911F9179
:100930000F91FF90EF90DF90CF90BF90AF90089510
:10094000CF93C82F8FEF8C0F8E3F08F5C093AC016B
:10095000C093200163E082E20E94A31561E081E27E
:100960000E94A3150E94B9156C2F80E090E00E94B0
:10097000E81E1F92CF938EED93E09F938F930E947A
:100980004D030F900F900F900F9081E018C01F92B1
:10099000CF9380EF93E09F938F930E944D030F902E
:1009A0000F900F900F9080E090E0892B21F08EE661
:1009B00090E00E9400008FEF8093AC0180E0CF9127
:1009C00008952F923F924F925F926F927F928F92F3
:1009D0009F92AF92BF92CF92DF92EF92FF920F93CE
:1009E0001F93CF93DF93CDB7DEB72C970FB6F89454
:1009F000DEBF0FBECDBFE091F802F091F902028098
:100A0000F381E02D309709F009958091020384FB72
:100A1000222720F9298784FF59C386E0D82E90E049
:100A2000E92E90E0F92E9E012F5F3F4F3C832B83F0
:100A300020EA822E26E8922EAA24A394B12C34EB2D
:100A4000432E3BE2532E31E1632E712C21E041E035
:100A500060E070E087E10E94711580FD37C3DA9491
:100A6000DD2009F433C3E114F10421F081E090E0CA
:100A70000E94000021E041E060E070E080E60E941A
:100A80007115C82E30E2381720F482EE0E94C61588
:100A9000C12C21E04C2D61EC72E081E60E947115C1
:100AA00060E487E20E94A3158091C402282F269556
:100AB000269526952A3108F029E182FD03C077E0CA
:100AC000720F01C070E28091C50287708D83109112
:100AD000C6020091C2022090C1023090C30281EC94
:100AE00092E02A877C870E946D0D2A85422F50E074
:100AF0009F938F938091C40282FB882780F91F9275
:100B00008F931F922F938091C5028295869587704F
:100B10001F928F931F921F931F922D812F9380916D
:100B2000C7021F928F931F923F921F922F921F9284
:100B30000F93A4EAB3E0BF93AF934A875B870E9409
:100B40004D030FB6F894DEBF0FBECDBF7C854A853E
:100B50005B85C71679F0E114F10429F08CE690E08A
:100B60000E9400007C851F927F931F92CF928FE896
:100B700093E017C02091C402822F83708230E1F08D
:100B8000E114F10421F08DE690E00E9400001F9234
:100B900082E08F938091C40283701F928F938AE7C3
:100BA00093E09F938F930E944D030F900F900F90AF
:100BB0000F900F900F904ACF80910303806880932D
:100BC00003038091AC01381259C0822F8695869517
:100BD00086958A3108F089E138E0839FC0011124AD
:100BE0002770822B8093C402FA01EF53FD4F1782C6
:100BF0008091C50283FF21C089E693E09F938F9384
:100C00000E944D0381E2E1ECF2E0A0EAB2E0019043
:100C10000D928A95E1F78091A402877F806180938D
:100C2000A4028091AC018093A1020093A20280EA09
:100C300092E00E94CC150F900F909091C50294FD08
:100C40000BC02D81233081F48091C60221EF280F43
:100C5000233008F055C0FACEA6EDB2E0BF93AF93B3
:100C60000E944D030F900F9020E030E0232B09F4F9
:100C7000EDCE81EC92E00E940000E8CE3FEF33120F
:100C800036C0AAECB2E0BF93AF930E944D030F9021
:100C90000F902D81233031F58091020382FF03C034
:100CA000173009F4D3CE183009F4D0CE143109F03E
:100CB000CDCE8091AD012812C9CE0E94200F737055
:100CC000882799270E94E60E1091AD0125E143E0A7
:100CD0006FEF802F0E945E0D612F0E9430150E94E1
:100CE000A803B4CE8091AD012812B0CEBDCFA3EB46
:100CF000B2E0BF93AF930E944D030F900F90A6CE2A
:100D0000143029F40E940A0E0E94A0049FCE1830CD
:100D100011F51091020310FF1BC00E940A0E8F3FB5
:100D200009F494CE8F5F8F3F09F490CE9091AE017D
:100D3000891708F08BCE11FD89CE8093AE01009308
:100D4000AD011F928F931F920F938DE493E029CFF3
:100D500085E393E030C01831C1F40E940A0E1F925F
:100D60008F931F920F9389E193E09F938F930E943B
:100D70004D0329E143E06FEF802F0E945E0D61E09B
:100D80000E9430150E94A80310CF1931B9F4809148
:100D9000020383FF0EC0877F809302030E940A0E26
:100DA000809304031F928F9380E093E09F938F932F
:100DB0003CC083EE92E09F938F939DCF2091C2021F
:100DC000211180C18D3099F480E090E0892B21F0D1
:100DD0008BE090E00E94000098E088E10FB6F89464
:100DE000A895809360000FBE90936000FFCF8B3179
:100DF00019F50E940A0E91E0811101C090E08091E6
:100E0000780190FB80F980937801E114F10421F0DE
:100E10008AE090E00E9400008091780181701F922A
:100E20008F93AEE9B2E0BF93AF930E944D030F9052
:100E30000F900F900F900ACE8630A9F49091C802BF
:100E4000992329F081E09D3419F080E001C0898563
:100E50008093770141E050E063E071E087E791E043
:100E60000E94D81EF3CD833119F40E94DB15EECD1C
:100E70008231F1F40E940E036D837E838F83988705
:100E800026E143E06FEF80E00E945E0DFC0184816B
:100E90008F71806A848383818770806283838D8170
:100EA0009E81AF81B88587839087A187B287DAC09A
:100EB000813001F5A0E0B0E0AB2B09F4C7CD9295ED
:100EC00096959770953049F46091C8027091C90267
:100ED0008091CA029091CB020AC0911105C088ECA2
:100EE00092E00E94131803C060E070E0CB010E9402
:100EF0000000ACCD8A3009F4A9CD8C3109F0B4CE14
:100F00008091C802823509F4A1CD8635B1F58EE411
:100F100080937C0066E470E080E090E00E94E60E42
:100F200080917A00806480937A0080917A0086FDB7
:100F3000FCCF20907800309079002CE143E06FEFF7
:100F400080E00E945E0D8C01FC0184818F718066BF
:100F500084838381877080618383910140E050E0C6
:100F6000C301B2010E949E1FD80118963C932E9394
:100F70001797C8010E94CC1569CD863409F052C07C
:100F8000F8948FEF86BB1092850010928400109227
:100F9000800010928200909160002DE088E10FB6F1
:100FA000F894A895809360000FBE20936000809114
:100FB0006000806480936000A89585E08093810044
:100FC0008091600087FFFCCF10928100A8958091EE
:100FD0006000886180936000909360007894209016
:100FE0008400309085002CE143E06FEF80E00E94A8
:100FF0005E0D8C01FC0184818F7180668483838106
:10100000877080618383C101A0E0B0E0BC01CD01A5
:101010004BE0660F771F881F991F4A95D1F7A501EE
:101020009401A0CF8D3401F50091750310917603E2
:101030000115110511F409E713E02CE143E06FEF0E
:1010400080E00E945E0DFC0184818F718066848344
:1010500083818770806183838B819C81801B910B4E
:1010600090878783CF0186CF853409F0EFCC2CE1C0
:1010700043E06FEF80E00E945E0D6BE471E00E9440
:101080003C150E94CC1500E010E06FEFC8010E94F3
:10109000E81E0F5F1F4F0D39B1E01B07B1F780E06D
:1010A00090E0892B21F08BE090E00E94000098E016
:1010B00088E10FB6F894A895809360000FBE9093D6
:1010C0006000FFCF8A3109F0CFCDC0CC2C960FB68F
:1010D000F894DEBF0FBECDBFDF91CF911F910F916E
:1010E000FF90EF90DF90CF90BF90AF909F908F9048
:1010F0007F906F905F904F903F902F9008950F9347
:101100001F930E940E03209103032077203729F0BC
:1011100000E117E220E030E004C000E61AEE20E033
:1011200030E0061717072807390770F48CE892E0BB
:101130009F938F930E944D030F900F9081E291E057
:101140001F910F910C9421031F910F91089580918D
:101150000303982F9077903759F0982F92959F70AE
:101160009F5F97709295907F8F78892B8093030370
:1011700080910303829587701F928F938BE792E093
:101180009F938F930E944D03809102038B7F8F7EEC
:10119000809302030F900F900F900F9080E090E0EB
:1011A000892B21F087E690E00E9400008DE692E016
:1011B0009F938F930E944D030F900F900C94B41542
:1011C000809103038F70863060F084E592E09F93F6
:1011D0008F930E944D030F900F9087E191E00C9444
:1011E000210308958091AE011F928F938091AD01EC
:1011F0001F928F938091AC011F928F9385E392E0B1
:101200009F938F930E944D0380910203846080938B
:10121000020380910303807880930303E0917303BA
:10122000F09174038DB79EB708960FB6F8949EBFE1
:101230000FBE8DBF309709F0099408958091040383
:101240008F3F79F10E94200F6093FE027093FF029E
:10125000809300039093010389E292E09F938F9320
:101260000E944D03909104038091AE010F900F9066
:101270009817A1F01F929F931F928F9381E192E0A4
:101280009F938F930E944D03809104038093AE013E
:101290000F900F900F900F900F900F9083E191E0BF
:1012A00025C00E940E03613D77408105910500F144
:1012B00080910203803618F48FE091E017C082E03D
:1012C00092E09F938F930E944D0380910203877F4A
:1012D000809302030F900F9080E090E0892B21F023
:1012E0008AE690E00E94000087E191E00C942103DF
:1012F000089589EF91E09F938F930E944D030F9083
:101300000F9080E090E0892B21F088E090E00E942F
:1013100000008FEF80930403809102038860809324
:10132000020328E143E06FEF80E00E945E0D61E080
:101330000E9430150C94A8038091AC018F3F99F066
:101340008EEE91E09F938F930E944D030F900F902C
:1013500080E090E0892B21F087E090E00E9400007F
:101360008FE091E020C00E940E03613D774081052F
:101370009105D8F080910203803618F48BE091E05B
:1013800012C080EE91E09F938F930E944D030F90C7
:101390000F9080E090E0892B21F089E690E00E9498
:1013A000000087E091E00C942103089588ED91E01E
:1013B0009F938F930E944D030F900F908091AC01EB
:1013C0008F3FE1F480E090E0892B21F086E090E00F
:1013D0000E9400008CEC91E09F938F930E944D033C
:1013E00023E043E06FEF80E00E945E0D6AE471E06D
:1013F0000E943C150F900F900C94A80308950E9432
:101400000E03613D77408105910520F48091020330
:1014100081FF08958091AD018F3FC1F08FEB91E086
:101420009F938F930E944D03809102038E7F809340
:1014300002030F900F9080E090E0892B21F085E06F
:1014400090E00E9400008BE091E021C080910203B7
:10145000803658F48BE991E09F938F930E944D035F
:101460000F900F9087E191E012C08FEA91E09F9377
:101470008F930E944D030F900F9080E090E0892B96
:1014800021F088E690E00E94000087E091E00C9453
:10149000210381E991E09F938F930E944D030F9068
:1014A0000F9080E090E0892B21F084E090E00E9492
:1014B000000080910203897F8160809302038FEF97
:1014C0008093AE018093AD0127E043E06FEF0E946F
:1014D0005E0D6AE471E00E943C150C94A803CF9362
:1014E000219A229ACFB7F89480917601811127C072
:1014F000E9EBF4E08491EDECF4E09491E82FF0E076
:10150000EE0FFF1FEA59FB4FA591B491EC91E9232F
:1015100021F461E08AE00E945E0E61E08AE00E94B0
:10152000AA0E8CB580618CBD8CB580648CBD61E0E9
:101530008DE00E94AA0E61E08BE00E94AA0E8091CD
:1015400076018F5F80937601CFBF29982A9A6EE04B
:1015500080E20E94A31565E070E080E090E00E94C8
:10156000E60E63E083E20E94A3156FE584E20E9429
:10157000A3156CE485E20E94A31567E286E20E944F
:10158000A31563E780E50E94A31566E08DE30E9442
:10159000A31521E041E060E070E086E00E94711553
:1015A000C82F21E041E060E070E085E00E94711505
:1015B0008C3409F049C0C73209F046C062E082E2CB
:1015C0000E94A31560E081E20E94A31563E08CE312
:1015D0000E94A3158FEF8093020120E045E062E0B6
:1015E00071E08BE20E94711520E045E062E071E05D
:1015F0008AE20E94711520E045E062E071E080E33C
:101600000E94711582EE0E94C61581EE0E94C615D9
:1016100060E787E20E94A31580E891E09F938F9393
:101620000E944D03809102038061809302038091A8
:10163000AC010F900F908F3FC1F00E94A004811168
:1016400014C087E091E013C08CE691E09F938F93E4
:101650000E944D030F900F9080E090E0892B89F35A
:1016600087E690E00E940000ECCF87E191E0CF9107
:101670000C94210382E691E09F938F930E944D0387
:10168000E2E0F3E08081877F8F7E80831092FE020C
:101690001092FF0210920003109201030F900F901E
:1016A00043E050E060E070E08CEA91E00C94C81EEA
:1016B00020917A002F7720937A00309160008A3051
:1016C0009105B1F083FD02C028E001C028E28770D7
:1016D000822B98E10FB6F894A895909360000FBE06
:1016E00080936000809160008065809360000BC0F3
:1016F0000FB6F894A895809160008861809360008F
:10170000109260000FBE83B7817F846083BFF8941E
:1017100083B7816083BF85B7806685BF8F7D85BFB6
:101720007894889583B78E7F83BFF894A89580912D
:1017300060008861809360003093600078948091AD
:101740007A00806880937A0008951F920F920FB6F6
:101750000F9211240F900FBE0F901F9018958F922B
:101760009F92AF92BF92CF92DF92EF92FF92CF9370
:10177000DF93A0915302882311F03A2F01C030E08B
:101780008091540290E0880F991F82579B4FC09020
:101790005902D0905A02E0905B02F0905C0240E067
:1017A00050E0BA01FC01C591D49128812A2323136A
:1017B0000FC04A015B012FEF821A920AA20AB20AF5
:1017C0004C155D056E057F0538F4B501A401EACF1F
:1017D000342F252FCB0104C030E020E080E090E0E2
:1017E000632F722FDF91CF91FF90EF90DF90CF901A
:1017F000BF90AF909F908F9008953FB7F8948091DD
:10180000E8029091E902A091EA02B091EB0226B5BC
:10181000A89B05C02F3F19F00196A11DB11D3FBF28
:10182000BA2FA92F982F8827820F911DA11DB11DB6
:10183000BC01CD0142E0660F771F881F991F4A95B2
:10184000D1F708950895CF92DF92EF92FF920F9310
:101850001F93CF93DF936C017A018B01C0E0D0E03E
:10186000CE15DF0589F0D8016D918D01D601ED917E
:10187000FC910190F081E02DC6010995892B11F4AE
:101880007E0102C02196ECCFC701DF91CF911F915D
:101890000F91FF90EF90DF90CF900895FC01538D52
:1018A000448D252F30E0842F90E0821B930B54173A
:1018B00010F0CF96089501970895FC01918D828DC7
:1018C000981761F0828DDF01A80FB11D5D968C9194
:1018D000928D9F5F9F73928F90E008958FEF9FEF9F
:1018E0000895FC01918D828D981731F0828DE80F5B
:1018F000F11D858D90E008958FEF9FEF0895FC0115
:10190000918D228D892F90E0805C9F4F821B9109E1
:101910008F73992708958FEA91E00E947F0C21E050
:10192000892B09F420E0822F0895FC01848DDF01CA
:10193000A80FB11DA35ABF4F2C91848D90E0019642
:101940008F739927848FA689B7892C93A089B18931
:101950008C9180648C93938D848D981306C002883B
:10196000F389E02D80818F7D80830895EF92FF922F
:101970000F931F93CF93DF93EC0181E0888F9B8DB2
:101980008C8D981305C0E889F989808185FD24C074
:10199000F62E0B8D10E00F5F1F4F0F731127E02EF7
:1019A0008C8DE8120CC00FB607FCFACFE889F989D4
:1019B000808185FFF5CFCE010E94950CF1CF8B8DF4
:1019C000FE01E80FF11DE35AFF4FF0820B8FEA8909
:1019D000FB898081806207C0EE89FF896083E88986
:1019E000F98980818064808381E090E0DF91CF91EC
:1019F0001F910F91FF90EF900895CF93DF93EC012B
:101A0000888D8823C9F0EA89FB89808185FD05C01E
:101A1000A889B9898C9186FD0FC00FB607FCF5CF58
:101A2000808185FFF2CFA889B9898C9185FFEDCFA0
:101A3000CE010E94950CE7CFDF91CF91089580E011
:101A400090E0892B29F00E948B0C81110C940000EE
:101A5000089508958FEF9FEF08958FEF9FEF0895FA
:101A60008091E20290E091958195910908950E94FC
:101A7000C61FCF93DF9300D0CDB7DEB7CB01642F65
:101A800049835A830E9408154981842F5A81952FD2
:101A90000F900F90DF91CF910895CF93DF931F9216
:101AA000CDB7DEB7698361E0CE0101960E940815CB
:101AB00081E090E00F90DF91CF910895E0EAF2E0AD
:101AC0009091AC01918382836683258347708481E2
:101AD000807E482B4483CF0108950F931F93CF93AB
:101AE000DF93EC018C8182958695877091F44B8110
:101AF00046954695469550E0BE01695F7F4F89E760
:101B000091E00E94CB1FEB81E695E695E695F0E02B
:101B100077C0813031F48F814AE069E771E090E06D
:101B200007C0823041F44AE069E771E08F8198850F
:101B30000E943A1868C0833041F44AE069E771E0D6
:101B40008F8198850E9493185EC0843051F46F8114
:101B5000788589859A852AE049E751E00E944518F1
:101B600052C0853051F46F81788589859A852AE045
:101B700049E751E00E94711846C0873071F42B8507
:101B8000293008F028E06F81788589859A8509E7F2
:101B900011E042E00E94D51736C08630A1F520E062
:101BA000EB81E695E695E6952E1738F5E22FF0E005
:101BB000AF01440F551FDA01A758BE4FEC0FFD1FB0
:101BC0008781082E000C990B34E0959587953A95FE
:101BD000E1F78F708A3010F4805D01C0895C8C93CE
:101BE000DA01A658BE4F87818F708A3010F4805D6D
:101BF00001C0895C8C932F5FD3CFF0E0EE0FFF1F05
:101C0000E758FE4F108289E791E0DF91CF911F9155
:101C10000F9108958091C5028295869587708130D5
:101C200019F48091C8020895811105C088EC92E0F2
:101C30000E94F517089580E00895009769F0FC016F
:101C400001900020E9F73197AF01481B590BBC0107
:101C50008FEA91E00C94230C80E090E00895CF93FC
:101C6000DF93262F8F3F19F0CAE4D1E002C0C5E50B
:101C7000D1E040E0682F80E00E945E0DBE010E942E
:101C80003C15DF91CF910C94CC15FC018091AC01F7
:101C900081839481907F916094838091780180FF0B
:101CA00003C0CF010C94CC1588E994E09F938F93E7
:101CB0000E944D030F900F9080E0089590E0FC018A
:101CC000E658FB4F3491FC01ED53FB4F2491FC018E
:101CD000E155FB4FE491EE2309F43BC0332339F186
:101CE000333091F038F43130A9F0323001F584B559
:101CF0008F7D12C0373091F03830A1F03430B9F414
:101D0000809180008F7D03C0809180008F778093C9
:101D100080000DC084B58F7784BD09C08091B0006C
:101D20008F7703C08091B0008F7D8093B000F0E08A
:101D3000EE0FFF1FE059FB4FA591B4918FB7F894B8
:101D4000EC91611103C020952E2301C02E2B2C9302
:101D50008FBF0895CF93DF9390E0FC01ED53FB4FCD
:101D60002491FC01E155FB4F8491882361F190E0BF
:101D7000880F991FFC01EA59FB4FC591D491FC01D2
:101D8000E059FB4FA591B491611109C09FB7F89438
:101D90008881209582238883EC912E230BC06230AA
:101DA00061F49FB7F8943881822F809583238883CC
:101DB000EC912E2B2C939FBF06C08FB7F894E8812F
:101DC0002E2B28838FBFDF91CF9108958F929F9202
:101DD000AF92BF92CF92DF92EF92FF926B017C01A4
:101DE0000E94FD0B4B015C01C114D104E104F1041C
:101DF000F1F00E94FD0BDC01CB0188199909AA09B9
:101E0000BB09883E9340A105B10570F321E0C21AD9
:101E1000D108E108F10888EE880E83E0981EA11C25
:101E2000B11CC114D104E104F10419F7DDCFFF9016
:101E3000EF90DF90CF90BF90AF909F908F900895DC
:101E40002FB7F8946091E4027091E5028091E60268
:101E50009091E7022FBF0895CF92DF92EF92FF9209
:101E6000CF93DF93D82F0E94200F6B017C0181E07C
:101E7000D11180E08093C602C0E00E94200FAB0128
:101E8000BC014C195D096E097F09403D5740610551
:101E9000710580F4C1110EC0A8950E94E1049091D3
:101EA000C5029770933049F7C1E08091C6028D1347
:101EB000E3CFE3CF8C2FDF91CF91FF90EF90DF90B6
:101EC000CF900895CF92DF92EF92FF920F931F93DE
:101ED000CF93DF93CDB7DEB7C054D1400FB6F8949F
:101EE000DEBF0FBECDBF0E94200F009155021091A2
:101EF000560220915702309158026B017C01C01AA2
:101F0000D10AE20AF30A40EDC41647E0D406E10420
:101F1000F10418F480915D02BCC060935502709387
:101F200056028093570290935802109250021092DA
:101F30004F0210924E0210924D0210924C0261E03C
:101F4000809151020E945E0E6AEF70E080E090E0A6
:101F50000E94E60E61E0809151020E94AA0E60E0AC
:101F6000809151020E945E0E64E170E080E090E09A
:101F70000E94E60EF89461E0809151020E945E0E8C
:101F80008BE990E00197F1F762E0809151020E94A5
:101F9000AA0E83E290E00197F1F780E00E94AF0B78
:101FA000672B682B692B21F410925D0278943EC058
:101FB00081E00E94AF0B672B682B692BA9F38E0180
:101FC0000F5F1F4F6E018FEBC81A8EEFD80A780192
:101FD00080E00E94AF0BF70160837183828393835B
:101FE00081E00E94AF0BF70164837583868397833A
:101FF000F8E0EF0EF11CEC14FD0451F7789420E0AA
:1020000030E0F8014081518162817381C480D580C4
:10201000E680F780411551056105710529F0C1146D
:10202000D104E104F10421F410925D0280E031C09A
:10203000F90183E0F595E7958A95E1F7E45BFD4FBB
:102040008081880F4C155D056E057F0508F4816061
:1020500080832F5F3F4F085F1F4F2832310589F67D
:102060002091500230E040914C0280914D0290E06E
:10207000840F911D40914E02840F911D40914F029B
:10208000840F911D99272817390771F681E08093F5
:102090005D02C05CDE4F0FB6F894DEBF0FBECDBF51
:1020A000DF91CF911F910F91FF90EF90DF90CF9034
:1020B00008951F920F920FB60F9211242F933F9302
:1020C0008F939F93AF93BF938091E4029091E50229
:1020D000A091E602B091E7023091E30223E0230FE2
:1020E0002D3720F40196A11DB11D05C026E8230F50
:1020F0000296A11DB11D2093E3028093E402909308
:10210000E502A093E602B093E7028091E802909185
:10211000E902A091EA02B091EB020196A11DB11D66
:102120008093E8029093E902A093EA02B093EB0255
:10213000BF91AF919F918F913F912F910F900FBEC3
:102140000F901F9018951F920F920FB60F921124A7
:102150002F933F934F935F936F937F938F939F93AF
:10216000AF93BF93EF93FF93E0911D01F0911E0198
:102170000995FF91EF91BF91AF919F918F917F91C1
:102180006F915F914F913F912F910F900FBE0F90E4
:102190001F9018951F920F920FB60F9211242F9334
:1021A0003F934F935F936F937F938F939F93AF93DF
:1021B000BF93EF93FF93E0911B01F0911C010995F0
:1021C000FF91EF91BF91AF919F918F917F916F910F
:1021D0005F914F913F912F910F900FBE0F901F90E5
:1021E00018951F920F920FB60F9211242F933F93C1
:1021F0004F935F936F937F938F939F93AF93BF930F
:10220000EF93FF938FEA91E00E94950CFF91EF917D
:10221000BF91AF919F918F917F916F915F914F91FE
:102220003F912F910F900FBE0F901F9018951F9206
:102230000F920FB60F9211242F938F939F93EF93CA
:10224000FF93E091BF01F091C0018081E091C50151
:10225000F091C60182FD12C090818091C8018F5F0C
:102260008F732091C901821751F0E091C801F0E00D
:10227000E155FE4F958F8093C80101C08081FF9189
:10228000EF919F918F912F910F900FBE0F901F9004
:102290001895089580E090E0089585ED8093BC0046
:1022A0008091BC0084FDFCCF10924D0308958F9265
:1022B0009F92AF92BF92CF92DF92EF92FF92CF9315
:1022C00060ED77E080E090E00E94E60E0E94620FF1
:1022D000882309F441C0809152028B3029F0E0F14B
:1022E0008551823058F038C060914E0270E080E035
:1022F00090E00E94CD1D6B017C0134C0C0914E0264
:102300006C2F6F7770E080E090E00E94CF1D20E09E
:1023100030E040E853E40E940A1E6B017C0180918A
:102320004F02682F70E080E090E00E94CF1D9B017B
:10233000AC01C701B6010E94321F2DEC3CEC4CEC05
:102340005DE30E940A1E6B017C01C7FF0BC0F7FA18
:10235000F094F7F8F09406C0C12CD12C40ECE42E98
:102360004FE7F42E0E94620F8823B1F18091520250
:102370008B3041F188F18551823070F560914C02CB
:1023800070E080E090E00E94CD1D20E030E040E869
:1023900053E40E940A1E4B015C0180914D02682F9C
:1023A00070E080E090E00E94CF1D9B01AC01C50170
:1023B000B4010E94321F2DEC3CEC4CEC5DE30E941A
:1023C0000A1E07C060914C0270E080E090E00E941D
:1023D000CD1D4B015C0106C0812C912C30ECA32E4D
:1023E0003FE7B32E8091610287708862809361021B
:1023F00080916202806E80936202C0926502D092E8
:102400006602E0926702F092680282E080936902BD
:102410008EE592E00E94450E80918202877088626C
:102420008093820280918302806E809383028092E7
:10243000860290928702A0928802B0928902C1E03F
:10244000C0938A028FE792E00E94450E1F928FEFA1
:102450008F931F928F931F928F931F928F931F9230
:102460001F921F92CF9384ED8F9380EC8F9382E124
:1024700095E09F938F930E944D03809102032DB7A7
:102480003EB7205F3F4F0FB6F8943EBF0FBE2DBF43
:1024900082FD26C084E095E09F938F930E944D03B8
:1024A0000E94200F6B017C010F900F9080E090E064
:1024B000DC012091020322FD46C0803137E2930700
:1024C000A105B10508F03FC0A8950E94E1040E9453
:1024D000200FDC01CB018C199D09AE09BF09E9CFA2
:1024E00080ECC82E84EDD82EEE24E394F12C87EEF8
:1024F00094E09F938F930E944D030E94B4150F9018
:102500000F9080E090E0892B21F08EE090E00E9417
:1025100000008FEA91E00E94FD0C80911F018F3F27
:10252000B1F520E4C2162FE1D206E104F10478F1FE
:1025300089E090E00E94580B80E4C81A8FE1D80A25
:10254000E108F108EACF803C34ED930731E0A307BE
:10255000B10508F0F2C020ECC22E24EDD22EEE24FC
:10256000E394F12CC81AD90AEA0AFB0AFF92EF9207
:10257000DF92CF9284EF94E09F938F930E944D035C
:102580000F900F900F900F900F900F90B0CF809101
:102590001F018F3F41F430EAC3163FE0D306E10448
:1025A000F10408F071C080911F018F3F41F480ED6C
:1025B000C81687E0D806E104F10408F070C08091E5
:1025C0001F018F3F41F428EEC21623E0D206E1043A
:1025D000F10408F06FC080911F018F3F41F434EF88
:1025E000C31631E0D306E104F10408F06EC0809117
:1025F0001F018F3F39F48AEFC816D104E104F104BA
:1026000008F06EC080911F018F3F39F42DE7C2168C
:10261000D104E104F10408F06DC080911F018F3FE7
:1026200039F430E4C316D104E104F10408F06CC0BD
:1026300080911F018F3F39F480E2C816D104E10474
:10264000F10408F06BC080911F018F3F39F420E145
:10265000C216D104E104F10408F06AC080E090E001
:10266000892B21F08FE090E00E9400008FEF8F9384
:102670008F9387ED94E09F938F930E944D030F906B
:102680000F900F900F9059C088E090E00E94580B77
:1026900080EAC81A8FE0D80AE108F10884CF87E001
:1026A00090E00E94580B20EDC21A27E0D20AE10800
:1026B000F10885CF86E090E00E94580B38EEC31AEF
:1026C00033E0D30AE108F10886CF85E090E00E946C
:1026D000580B84EFC81A81E0D80AE108F10887CFC7
:1026E00084E090E00E94580B2AEFC21AD108E1085A
:1026F000F10888CF83E090E00E94580B38E7C31AB6
:10270000D108E108F10889CF82E090E00E94580BDF
:102710008CE3C81AD108E108F1088ACF81E090E083
:102720000E94580B2EE1C21AD108E108F1088BCFA4
:1027300080E090E00E94580B91CFCF91FF90EF90F6
:10274000DF90CF90BF90AF909F908F900895CF93E0
:10275000DF93CCE4D2E062E08D810E94AA0E80E398
:1027600098EFAFEFBFEF89879A87AB87BC87DF9180
:10277000CF9108952BE043E06FEF80E00E945E0D63
:102780006BE571E00E943C150E94CC152CE043E003
:102790006FEF80E00E945E0D67E571E00E943C15DE
:1027A0000E94CC1567E080E00E942F0E66E081E079
:1027B0000C942F0E1F920F920FB60F9211242F938D
:1027C0003F934F935F936F937F938F939F93AF93B9
:1027D000BF93EF93FF938091B900887F803609F40F
:1027E0009CC068F5883209F45BC090F4803109F42C
:1027F00054C038F4882309F4F6C0883009F44DC079
:10280000F6C0883109F44CC0803209F45DC0EFC0D5
:10281000803409F468C048F4803309F455C0883323
:1028200009F0E5C080934C03D8C0803509F44FC04F
:10283000883509F45DC0883409F0D9C0D6C088391C
:1028400009F4C7C0A8F4883709F467C038F488369B
:1028500009F463C0803709F460C0C9C0883809F43E
:10286000B8C0803909F45FC0803809F0C0C05BC0CF
:10287000803B09F486C038F4803A09F466C0883A8F
:1028800009F47FC0B4C0803C09F4A7C0883C09F4B7
:10289000A4C0883B09F48AC0AAC08091720310C00A
:1028A0009091710380917003981770F5E091710316
:1028B00081E08E0F80937103F0E0E05BFC4F80813C
:1028C0008093BB0085EC86C080934C038EC0E09162
:1028D000710381E08E0F809371038091BB00F0E063
:1028E000E05BFC4F808390917103809170036EC018
:1028F000E091710381E08E0F809371038091BB00A2
:10290000F0E0E05BFC4F808380914F0381116DC04C
:1029100081E080934E0384EA61C083E080934D039D
:1029200010924B03CFCF80914B03803208F051C0FF
:10293000E0914B0381E08E0F80934B038091BB00AD
:10294000F0E0E55DFC4F8083BDCF85EC8093BC005B
:1029500010924D0380914B03803230F4E0914B0391
:10296000F0E0E55DFC4F108260914B0370E0E09178
:102970002903F0912A038BE293E0099510924B030F
:1029800036C084E080934D031092280310922703F1
:10299000E0912503F0912603099580912703811189
:1029A00005C081E08093270310920503E09128037E
:1029B00081E08E0F80932803F0E0EB5FFC4F808175
:1029C0008093BB009091280380912703981708F407
:1029D00079CF85E88093BC000AC085EC8093BC0069
:1029E00010924D0304C010924C030E944D11FF91B0
:1029F000EF91BF91AF919F918F917F916F915F9177
:102A00004F913F912F910F900FBE0F901F901895EF
:102A100040912703262F30E0240F311D213231054C
:102A2000DCF420914D032430C9F4FC0180E090E0F7
:102A3000861758F4309127032191DC01AB5FBC4F1E
:102A4000A30FB11D2C930196F3CF80912703680F3C
:102A50006093270380E0089581E0089582E008955F
:102A6000FC01838187708860838384818F71806299
:102A700084836783CF0108950F931F93CF93DF93D0
:102A8000EC016115710561F0FB0101900020E9F78F
:102A90003197E61BF70BE931F10518F0E9E101C0C8
:102AA000E0E00E2F10E0C80123E0880F991F2A955F
:102AB000E1F79B819770892B8B838C818F718C833D
:102AC000EE2329F0A801CE0107960E94CB1FFE013C
:102AD000E00FF11F1782CE01DF91CF911F910F916F
:102AE000089591E59CBD91E09DBD2A98E3E2F0E058
:102AF0003197F1F78EBD00000DB407FEFDCF8EB506
:102B0000FB019FEF4150C8F0222361F09EBD000001
:102B10000DB407FEFDCF8EB56115710599F3808365
:102B20003196F0CFDF01119680818EBD00000DB48B
:102B300007FEFDCF8EB5FD01E5CF2A9AE3E2F0E076
:102B40003197F1F70895CF93DF931F92CDB7DEB79A
:102B5000698320E041E0BE016F5F7F4F0E947115E5
:102B60000F90DF91CF91089529986CE080E20C944A
:102B7000A3156FE080E20E94A315609120016F3FD2
:102B800019F08AE20E94A315299A089520E040E0F6
:102B900060E070E00C9471152091020322FD0C940A
:102BA000A80381E495E09F938F930E944D030F90BB
:102BB0000F9080E00895CF9380E090E0892B21F082
:102BC0008CE090E00E9400002FE043E06FEF80E097
:102BD0000E945E0D6AE471E00E943C158091A302A0
:102BE000877080618093A3028091A4028F71806CB2
:102BF0008093A40281E08093A7021092A80280EA49
:102C000092E00E94CC158FE00E942C0F61E18FEFC3
:102C10000E942F0EC091AD0126E043E06FEF80E0EF
:102C20000E945E0D6C2F0E9430150E94CC1586E02C
:102C30000E942C0FCF910C94BA13CF9380917801FE
:102C400081FD2FC00E94DB158FE495E09F938F9349
:102C50000E944D030F900F9080E090E0892B21F0AF
:102C600089E090E00E94000080917801816080936B
:102C70007801C4E02AE143E06FEF80E00E945E0D3E
:102C800062E00E9430150E94CC158BE10E942C0F4F
:102C9000811102C0C15071F78091780182608093E8
:102CA0007801CF910895CF93EFEAF1E01382128279
:102CB00088EE93E0A0E0B0E084839583A683B78399
:102CC00029E231E03183208325EC30E03587248709
:102CD00024EC30E03787268720EC30E0318B208BE6
:102CE00021EC30E0338B228B22EC30E0358B248BCF
:102CF00026EC30E0378B268B118E128E138E148EBD
:102D0000ECEEF2E01382128284839583A683B7836C
:102D10008BE391E09183808381EC92E00E94C01765
:102D200080EA92E00E94C0178FE792E00E94C017ED
:102D3000EFE7F2E01682C1E0C5838EE592E00E94E3
:102D4000C017EEE5F2E0C6831582ACE4B2E082E0A3
:102D500015968C9315978BE016968C931697E5EC49
:102D6000F4E0E4911796EC931797E1EBF4E0E4912B
:102D70001896EC93189740E85EE360E070E01D96CB
:102D80004D935D936D937C935097CF910895789474
:102D900084B5826084BD84B5816084BD85B5826060
:102DA00085BD85B5816085BD80916E008160809311
:102DB0006E0010928100809181008260809381007A
:102DC000809181008160809381008091800081608A
:102DD000809380008091B10084608093B1008091E5
:102DE000B00081608093B00080917A00846080930D
:102DF0007A0080917A00826080937A0080917A00D4
:102E0000816080937A0080917A00806880937A0054
:102E10001092C100A89580E090E0892B11F00E94EB
:102E20000000E091BF01F091C00182E08083E09159
:102E3000BB01F091BC011082E091BD01F091BE0197
:102E400080E180831092C701E091C301F091C40139
:102E500086E08083E091C101F091C20180818061B0
:102E60008083E091C101F091C201808188608083FC
:102E7000E091C101F091C201808180688083E0917E
:102E8000C101F091C20180818F7D80838EE995E040
:102E90009F938F930E944D03809178018D7F809343
:102EA00078010F900F9080E090E0892B51F081E93C
:102EB00095E09F938F930E944D030E9400000F9016
:102EC0000F9041E050E063E071E087E791E00E94FD
:102ED000C81E6FEF81E090E00E94E81E809103031E
:102EE0008F78809303031092F9021092F80281E226
:102EF00091E00E9421038DE196E190937403809309
:102F000073031F921F921F921F928CE595E09F936F
:102F10008F930E944D030E94200F0F900F900F90EF
:102F20000F900F900F900E94200F0E94E104A8952F
:102F30008091020382FFF7CF84E895E09F938F93FF
:102F40000E944D030E94A7130F900F9080910203DF
:102F500082FB882780F91F928F938CE695E09F93E0
:102F60008F930E944D03A8950F900F900F900F9094
:102F7000A8950E94E1040E9457110E941F0DF8CFEE
:102F8000CF93DF93FC01108211821282148215828A
:102F90001682DC0117968AE1ED0119928A95E9F70C
:102FA00082E08383DF91CF910895EF920F931F9377
:102FB000CF93DF93E80147FD02C034E001C034E164
:102FC000E42F440FFF0BF7FF03C0F195E195F109E2
:102FD000E32E022F2E2FAE010E94AB1ACE01DF91FD
:102FE000CF911F910F91EF900895FC0188279927A9
:102FF000E89421912032E9F3293010F02E30C8F303
:103000002B3241F02D3239F4689404C00E946918C3
:10301000820F911D219120532A30C0F31EF4909508
:1030200081959F4F08951F93FC0199278827BC0124
:10303000E89411911032E9F3193010F01E30C8F302
:103040001B3251F01D3249F4689406C00E94541896
:10305000610F711D811D911D119110531A30B0F334
:103060003EF490958095709561957F4F8F4F9F4F5F
:103070001F910895BB274A3031F4992322F4BDE211
:10308000909581959F4F0C949418BB272A3051F44A
:10309000992342F4BDE290958095709561957F4F9C
:1030A0008F4F9F4F0C947218592F482F372F262F70
:1030B000660F771F881F991F660F771F881F991F3C
:1030C000620F731F841F951F660F771F881F991F3C
:1030D00008957AE0979F902D879F802D910D112460
:1030E0000895BB27FA01A62F621771058105910586
:1030F000330B30FB66F0AA27660F771F881F991FD6
:10310000AA1FA21710F0A21B63953850A9F7A05D63
:10311000AA3308F0A95DA19336F7B111B1931082DB
:10312000CA010C94271DBB27FB015527AA27880F2E
:10313000991FAA1FA41710F0A41B83955051B9F72B
:10314000A05DAA3308F0A95DA193009779F7B111AA
:10315000B1931192CB010C94271DAEE0B0E0E3EBEC
:10316000F8E10C94081F8C01CA014EE04C831A83CD
:10317000098377FF02C060E070E8FB013197FE83AE
:10318000ED83A901BC01CE0101960E94D9184D81A1
:103190005E8157FD0AC02F813885421753070CF412
:1031A0009A01F801E20FF31F10822E96E4E00C94CE
:1031B000241FACE0B0E0EFEDF8E10C94FA1E7C01C6
:1031C0006B018A01FC0117821682838181FFBDC1D8
:1031D000CE0101964C01F7019381F60193FD859193
:1031E00093FF81916F01882309F4ABC1853239F4D3
:1031F00093FD859193FF81916F01853229F4B70189
:1032000090E00E94371DE7CF512C312C20E0203276
:10321000A0F48B3269F030F4803259F0833269F4D3
:1032200020612CC08D3239F0803339F4216026C002
:103230002260246023C0286021C027FD27C030ED14
:10324000380F3A3078F426FF06C0FAE05F9E300D62
:103250001124532E13C08AE0389E300D1124332ED2
:1032600020620CC08E3221F426FD6BC1206406C0A2
:103270008C3611F4206802C0883641F4F60193FDC3
:10328000859193FF81916F018111C1CF982F9F7D0F
:103290009554933028F40C5F1F4FFFE3F9830DC062
:1032A000833631F0833771F0833509F05BC022C07B
:1032B000F801808189830E5F1F4F44244394512C71
:1032C000540115C03801F2E06F0E711CF801A080A6
:1032D000B18026FF03C0652D70E002C06FEF7FEF65
:1032E000C5012C870E941C1D2C0183012C852F7782
:1032F000222E17C03801F2E06F0E711CF801A08079
:10330000B18026FF03C0652D70E002C06FEF7FEF34
:10331000C5012C870E94111D2C012C852068222EAE
:10332000830123FC1BC0832D90E048165906B0F49E
:10333000B70180E290E00E94371D3A94F4CFF50186
:1033400027FC859127FE81915F01B70190E00E94E3
:10335000371D31103A94F1E04F1A510841145104CD
:1033600071F7E5C0843611F0893639F5F80127FF89
:1033700007C060817181828193810C5F1F4F08C0FB
:1033800060817181072E000C880B990B0E5F1F4F17
:103390002F76722E97FF09C0909580957095619554
:1033A0007F4F8F4F9F4F2068722E2AE030E0A4019C
:1033B0000E946F1DA82EA81844C0853729F42F7EBF
:1033C000B22E2AE030E025C0F22FF97FBF2E8F36D3
:1033D000C1F018F4883579F0B4C0803719F0883717
:1033E00021F0AFC02F2F2061B22EB4FE0DC08B2D67
:1033F0008460B82E09C024FF0AC09F2F9660B92EA2
:1034000006C028E030E005C020E130E002C020E145
:1034100032E0F801B7FE07C060817181828193813B
:103420000C5F1F4F06C06081718180E090E00E5FED
:103430001F4FA4010E946F1DA82EA818FB2DFF7717
:103440007F2E76FE0BC0372D3E7FA51450F474FE00
:103450000AC072FC08C0372D3E7E05C0BA2C372D3D
:1034600003C0BA2C01C0B52C34FF0DC0FE01EA0D1B
:10347000F11D8081803311F4397E09C032FF06C00E
:10348000B394B39404C0832F867809F0B39433FDCA
:1034900013C030FF06C05A2CB31418F4530C5B1839
:1034A000B32CB31468F4B70180E290E03C870E942B
:1034B000371DB3943C85F5CFB31410F43B1801C00D
:1034C000312C34FF12C0B70180E390E03C870E94AA
:1034D000371D3C8532FF17C031FD03C088E790E0FF
:1034E00002C088E590E0B7010CC0832F867859F0C0
:1034F00031FF02C08BE201C080E237FD8DE2B701EF
:1035000090E00E94371DA51438F4B70180E390E0E5
:103510000E94371D5A94F7CFAA94F401EA0DF11DC9
:103520008081B70190E00E94371DA110F5CF3320B4
:1035300009F451CEB70180E290E00E94371D3A9421
:10354000F6CFF7018681978102C08FEF9FEF2C960F
:10355000E2E10C94161F4F925F926F927F929F92BE
:10356000AF92BF92CF92DF92EF92FF920F931F9391
:10357000CF93DF93CDB7DEB729970FB6F894DEBFB0
:103580000FBECDBF6A01122FB02E2BE3201720F003
:10359000FF24F394F00E02C0BCE3FB2E0F2D27E0B6
:1035A000AE014F5F5F4F0E94391CAC018981982F9B
:1035B0009970913031F0E1FC06C0E0FE06C090E267
:1035C00005C09DE203C09BE201C090E0EE2DE071DA
:1035D00083FF3CC0911102C083E001C084E08117E9
:1035E00018F4212F281B01C020E0E1110BC0F601C7
:1035F000822F30E2882319F031938150FBCFC20E25
:10360000D11C20E0992329F0D6019C93F601319634
:103610006F01C6010396E2FE0AC03EE4D6013C9368
:1036200041E411964C93119712963C9306C03EE6E6
:10363000F601308341E641833283FC01322F40E2C0
:10364000332309F442C041933150FACF82FF44C082
:10365000911102C083E001C084E0811718F4212F8A
:10366000281B01C020E0E1110BC0F601822F30E2DF
:10367000882319F031938150FBCFC20ED11C20E07A
:10368000992329F0D6019C93F60131966F01C6016A
:103690000396E2FE0BC039E4D6013C933EE411965A
:1036A0003C93119736E412963C9307C039E6F60135
:1036B00030833EE6318336E63283FC01322F40E22E
:1036C000332319F041933150FBCFFC01E20FF11D80
:1036D00010828EEF9FEFB7C0F1E0911101C0F0E0D2
:1036E0006F2F70E01416150624F49A012F5F3F4FD8
:1036F00002C021E030E0260F371FBB2029F06B2DE0
:1037000070E06F5F7F4F02C060E070E0260F371FF0
:10371000612F70E0261737071CF4121B212F01C000
:1037200020E03E2D387159F4D601322F60E2332368
:1037300019F06D933150FBCFC20ED11C20E0FF2356
:1037400031F0D6019C93B6016F5F7F4F6B01E111A1
:103750000BC0F601922F30E3992319F03193915069
:10376000FBCFC20ED11C20E09F2D940F3A81782F01
:103770007071A72E84FF03C0313309F491501916DC
:1037800024F4993018F098E001C091E0E42F852FDF
:1037900057FF02C0E0E080E06E2F782FE0E0F0E01D
:1037A000AEE29A2E3A01691A71082A01461A570A9E
:1037B0000B2D10E01195019511096F3F8FEF7807E0
:1037C00029F4D6019C92C60101966C014617570751
:1037D00084F0661677066CF47F01E40CF51CA1E01A
:1037E000B0E0AC0FBD1FEA0EFB1ED7011196BC90D6
:1037F00002C090E3B92E615071093196C60101965D
:103800007C016017710724F0D601BC926C01D5CF02
:103810006417750741F4363320F4353321F4A110D1
:1038200002C081E3B82EF601B082F701822F90E248
:10383000882319F091938150FBCFF701E20FF11D1E
:10384000108280E090E029960FB6F894DEBF0FBE9C
:10385000CDBFDF91CF911F910F91FF90EF90DF903F
:10386000CF90BF90AF909F907F906F905F904F9060
:103870000895283008F027E03327DA01990F311D29
:1038800087FD916000966105710539F432602E5F05
:103890003D9330E32A95E1F708959F3F30F080385B
:1038A0007105610509F03C5F3C5F3D93913008F084
:1038B0008068911DDF93CF931F930F93FF92EF9238
:1038C000192F987F9695E92F96959695E90FFF27E2
:1038D000EE53FF4F99273327EE24FF24A701E7017A
:1038E00005900894079428F4360FE71EF81E491F28
:1038F000511D660F771F881F991F0694A1F7059029
:10390000079428F4E70EF81E491F561FC11D770FB4
:10391000881F991F661F0694A1F70590079428F445
:10392000F80E491F561FC71FD11D880F991F661F0C
:10393000771F0694A1F70590079420F4490F561FAE
:10394000C71FD81F990F661F771F881F0694A9F7F6
:1039500084911095177041F0D695C7955795479566
:10396000F794E7941A95C1F7E8E6F0E068941590AB
:10397000159135916591959105907FE27395E118C8
:10398000F10A430B560BC90BD009C0F7E10CF11E2D
:10399000431F561FC91FD01D7EF4703311F48A9542
:1039A000E6CFE894015030F0080F0AF40027021720
:1039B00008F4202F2395022F7A3328F079E37D93A2
:1039C0002A95E9F710C07D932A9589F60694979574
:1039D0006795379517951794E118F10A430B560B25
:1039E000C90BD00998F023957E9173957A3308F02E
:1039F00070E37C932013B8F77E9170617D9330F073
:103A0000839571E37D9370E32A95E1F71124EF909C
:103A1000FF900F911F91CF91DF91992787FD90958E
:103A20000895FC010590615070400110D8F7809511
:103A300090958E0F9F1F0895FC016150704001907A
:103A40000110D8F7809590958E0F9F1F0895DC0187
:103A5000FC01672F71917723E1F7329704C07C91C5
:103A60006D9370836291AE17BF07C8F308950F93EB
:103A70001F93CF93DF93FB01238121FD03C08FEFC1
:103A80009FEF28C022FF16C04681578124813581CF
:103A90004217530744F4A081B1819D012F5F3F4F2E
:103AA000318320838C93268137812F5F3F4F37836B
:103AB000268310C0EB01092F182F0084F185E02D1B
:103AC0000995892BE1F68E819F8101969F838E83D4
:103AD000812F902FDF91CF911F910F910895FA01BF
:103AE000AA27283051F1203181F1E8946F936E7F3D
:103AF0006E5F7F4F8F4F9F4FAF4FB1E03ED0B4E02E
:103B00003CD0670F781F891F9A1FA11D680F791F6E
:103B10008A1F911DA11D6A0F711D811D911DA11D7F
:103B200020D009F468943F912AE0269F112430198F
:103B3000305D3193DEF6CF010895462F4770405D2A
:103B40004193B3E00FD0C9F7F6CF462F4F70405DD9
:103B50004A3318F0495D31FD4052419302D0A9F734
:103B6000EACFB4E0A6959795879577956795BA952E
:103B7000C9F700976105710508959B01AC010A2EF4
:103B800006945795479537952795BA95C9F7620FCB
:103B9000731F841F951FA01D0895E89409C097FB0B
:103BA0003EF490958095709561957F4F8F4F9F4F14
:103BB0009923A9F0F92F96E9BB279395F695879558
:103BC00077956795B795F111F8CFFAF4BB0F11F41B
:103BD00060FF1BC06F5F7F4F8F4F9F4F16C08823C2
:103BE00011F096E911C0772321F09EE8872F762FF8
:103BF00005C0662371F096E8862F70E060E02AF039
:103C00009A95660F771F881FDAF7880F9695879524
:103C100097F908950E941D1E0C948E1E0E94801E0E
:103C200038F00E94871E20F0952311F00C94771E27
:103C30000C947D1E11240C94C21E0E949F1E70F3D2
:103C4000959FC1F3950F50E0551F629FF001729F41
:103C5000BB27F00DB11D639FAA27F00DB11DAA1F50
:103C6000649F6627B00DA11D661F829F2227B00D9D
:103C7000A11D621F739FB00DA11D621F839FA00D28
:103C8000611D221F749F3327A00D611D231F849F78
:103C9000600D211D822F762F6A2F11249F575040CF
:103CA0009AF0F1F088234AF0EE0FFF1FBB1F661F4A
:103CB000771F881F91505040A9F79E3F510580F013
:103CC0000C94771E0C94C21E5F3FE4F3983ED4F32D
:103CD000869577956795B795F795E7959F5FC1F7B7
:103CE000FE2B880F911D9695879597F9089597F962
:103CF0009F6780E870E060E008959FEF80EC089592
:103D000000240A94161617061806090608950024BA
:103D10000A9412161306140605060895092E039434
:103D2000000C11F4882352F0BB0F40F4BF2B11F4A8
:103D300060FF04C06F5F7F4F8F4F9F4F089557FD07
:103D40009058440F551F59F05F3F71F04795880F09
:103D500097FB991F61F09F3F79F0879508951216A0
:103D600013061406551FF2CF4695F1DF08C016164C
:103D700017061806991FF1CF8695710561050894FD
:103D80000895E894BB2766277727CB0197F9089514
:103D9000DC01CB01FC01F999FECF06C0F2BDE1BD0B
:103DA000F89A319600B40D9241505040B8F70895FA
:103DB000DC01A40FB51F4150504048F0CB01840FE7
:103DC000951F2E910E94E91E41505040D0F7089552
:103DD000262FF999FECF92BD81BDF89A019700B4C4
:103DE000021639F01FBA20BD0FB6F894FA9AF99A64
:103DF0000FBE08952F923F924F925F926F927F92E3
:103E00008F929F92AF92BF92CF92DF92EF92FF92EA
:103E10000F931F93CF93DF93CDB7DEB7CA1BDB0B96
:103E20000FB6F894DEBF0FBECDBF09942A8839883B
:103E300048885F846E847D848C849B84AA84B98442
:103E4000C884DF80EE80FD800C811B81AA81B9814E
:103E5000CE0FD11D0FB6F894DEBF0FBECDBFED0162
:103E600008955058BB27AA270E94491F0C948E1E04
:103E70000E94801E38F00E94871E20F039F49F3F78
:103E800019F426F40C947D1E0EF4E095E7FB0C94D7
:103E9000771EE92F0E949F1E58F3BA176207730717
:103EA0008407950720F079F4A6F50C94C11E0EF452
:103EB000E0950B2EBA2FA02D0B01B90190010C013A
:103EC000CA01A0011124FF27591B99F0593F50F452
:103ED000503E68F11A16F040A22F232F342F4427AA
:103EE000585FF3CF469537952795A795F0405395A2
:103EF000C9F77EF41F16BA0B620B730B840BBAF072
:103F00009150A1F0FF0FBB1F661F771F881FC2F7DC
:103F10000EC0BA0F621F731F841F48F487957795F0
:103F20006795B795F7959E3F08F0B0CF9395880FAA
:103F300008F09927EE0F979587950895A1E21A2E1C
:103F4000AA1BBB1BFD010DC0AA1FBB1FEE1FFF1F3D
:103F5000A217B307E407F50720F0A21BB30BE40B8D
:103F6000F50B661F771F881F991F1A9469F76095D4
:103F70007095809590959B01AC01BD01CF0108958E
:103F8000EE0FFF1F0590F491E02D099481E090E081
:103F9000F8940C94DA1FFB01DC014150504048F0CA
:103FA00001900D920020C9F701C01D924150504070
:083FB000E0F70895F894FFCF3B
:103FB800FFFF00FCE1A8A8A7087F08D6099C09799B
:103FC800091E09F208E008490AFF09220C220CFF21
:103FD800FF3A0B6F0A00000000B60C230C4E0CFDD4
:103FE8000C7F0C5D0C710C000000004D0D390D4A62
:103FF80011290D300D2D0D2A0D20004F4B004E417B
:10400800434B002100322E312E31004448542054B5
:10401800656D7065726174757265416E6448756D21
:064028006964697479006F
:00000001FF
